S01700006275696C642F697269732F6D61696E2E7372656343
S11300000C9469000C947B000C947B000C947B0092
S11300100C947B000C947B000C947B000C947B0070
S11300200C947B000C947B000C947B000C947B0060
S11300300C947B000C94E3020C947B000C94270337
S11300400C947B000C947B000C947B000C947B0040
S11300500C947B000C947B000C947B000C947B0030
S11300600C947B000C947B000C947B000C947B0020
S11300700C947B000C947B000C947B000C947B0010
S11300800C947B000C947B000C947B000C947B0000
S11300900C947B000C947B000C947B000C947B00F0
S11300A00C947B000C947B000C947B000C947B00E0
S11300B00C947B000C947B000C947B000C947B00D0
S11300C00C947B000C947B000C947B0000020E06C5
S11300D00C0411241FBECFEFD1E2DEBFCDBF22E05E
S11300E0A0E0B2E001C01D92A433B207E1F70E9480
S11300F04F030C945C040C94000080912C028F3FFD
S113010071F0E82FF0E0E75FFD4F908190932C02AF
S11301109F3F11F4909333029FEF908308958FEFE4
S113012008958091B0008093B0008091B60081FD65
S1130130FCCF08952FB7F8943091B2008091050256
S113014090910602A0910702B0910802B99B0FC0DA
S11301504091B3003091B200BC01CD016F5F7F4F7D
S11301608F4F9F4F640F711D811D911D02C0BC01F3
S1130170CD01630F711D811D911D2FBF08959FB780
S1130180F894E82FF0E0E75FFD4F20812F3FC9F49A
S113019021E030E0E0913302E81711F020E030E094
S11301A0232B79F420912C022F3F19F480932C02F5
S11301B004C0F0E0E75FFD4F80838093330280E06A
S11301C001C085E09FBF0895CF92DF92EF92FF9226
S11301D00F931F93CF93CFB7F8942091B3009091CE
S11301E0B20087B3291711F081FF02C0CFBF78C0D6
S11301F080910C02811102C086EE3AC00E949A00DE
S11302000091010210910202209103023091040234
S1130210C0902F02D0903002E0903102F090320270
S1130220601B710B820B930B6C157D058E059F056E
S113023028F010920C0286EE31E01BC0D701C601F3
S1130240800F911FA21FB31F409105025091060217
S11302506091070270910802841B950BA60BB70BE3
S1130260873E9105A105B10538F6823008F482E095
S113027030E02FEF280F9091B60093FDFCCF9091C2
S1130280B200291301C0282F809105029091060223
S1130290A0910702B0910802AC01BD014F5F5F4F0E
S11302A06F4F7F4F420F511D611D711D4817590734
S11302B06A077B0710F4282F20958091B60083FDF0
S11302C0FCCF2093B300CFBF332351F080E0CF9114
S11302D01F910F91FF90EF90DF90CF900C94BF008F
S11302E0CF911F910F91FF90EF90DF90CF900895E1
S11302F0CF92DF92EF92FF92CF93C82F6A017B01D6
S11303000E949A0029E0C29FF0011124E35FFD4F8F
S11303106083718382839383C482D582E682F78269
S113032080858E7F8260808781E0CF91FF90EF90FF
S1130330DF90CF900C94BF004F925F926F927F92A8
S1130340BF92CF92DF92EF92FF920F931F93CF93BE
S1130350DF93EDE0F2E0C0E0D0E0B084B1FE3DC058
S113036040805180628073800481158126813781A9
S11303706B017C01C418D508E608F708C016D1063D
S1130380E206F30650F1B0FE04C0E894B1F8B0867A
S11303900AC0D301C201800F911FA21FB31F808323
S11303A09183A283B383C1111EC0809100028F5F29
S11303B0809300029FB7F89480FF02C0129801C096
S11303C0129A81FF02C0119801C0119A82FF02C0E3
S11303D0109801C0109A9FBF06C021963996C33069
S11303E0D10509F0BACF81E0DF91CF911F910F9130
S11303F0FF90EF90DF90CF90BF907F906F905F90D1
S11304004F900C94BF008F929F92AF92BF92CF9265
S1130410DF92EF92FF920F931F93CF938823A1F063
S1130420813009F0BFC00E949A002FB7F89410924F
S11304300C022FBFEDE0F2E0C0E088248A94982CEF
S1130440A82C2FE7B22E67C080910B02811141C006
S1130450409128025091290260912A0270912B0246
S1130460EFB7F89480912F0290913002A09131025D
S1130470B091320200910102109102022091030214
S113048030910402800F911FA21FB31FEFBF40934E
S113049028025093290260932A0270932B0210922F
S11304A00B022FB7F89431E030930C0280930102D1
S11304B090930202A0930302B093040240932F028C
S11304C05093300260933102709332022FBF0E9426
S11304D0E4000E949A002BC00081118122813381A3
S11304E06B017C01C01AD10AE20AF30A0481158166
S11304F0268137810C191D092E093F090815190594
S11305002A053B051CF448015901C1E0399622E053
S1130510E832F20721F0408541FFF8CFDDCFCC234C
S113052009F440C0181419041A041B046CF0CF9188
S11305301F910F91FF90EF90DF90CF90BF90AF90FD
S11305409F908F900C949C01809228029092290293
S1130550A0922A02B0922B0241E040930B024FB7C3
S1130560F89451E050930C026093010270930202DC
S1130570809303029093040280922F02909230029F
S1130580A0923102B09232024FBFCF911F910F91CE
S1130590FF90EF90DF90CF90BF90AF909F908F909F
S11305A00C94E400CF911F910F91FF90EF90DF9096
S11305B0CF90BF90AF909F908F9008958FB7F8948D
S11305C008958FBF08951F920F920FB60F921124B2
S11305D00BB60F922F933F934F935F936F937F9339
S11305E08F939F93AF93BF93EF93FF930E949100D8
S11305F02091B30030E02F5F3F4F8091050290912E
S11306000602A0910702B0910802820F931FA11D58
S1130610B11D8093050290930602A0930702B09344
S1130620080278940E94E400FF91EF91BF91AF918A
S11306309F918F917F916F915F914F913F912F91F6
S11306400F900BBE0F900FBE0F901F9018951F9226
S11306500F920FB60F9211240BB60F922F933F9364
S11306604F935F936F937F938F939F93AF93BF93B6
S1130670EF93FF930E949100FF91EF91BF91AF918F
S11306809F918F917F916F915F914F913F912F91A6
S11306900F900BBE0F900FBE0F901F901895CFB701
S11306A0F89414BE88E10FB6F89480936000109219
S11306B060000FBE8FEF9FEF90930A0280930902B0
S11306C080932C028093330281E08093810080E246
S11306D08093B60083E08093B10080918400909170
S11306E085004AE720918400309185002817390756
S11306F008F44150442311F0C901F4CF8091B200B1
S11307009091B2009817E1F3209184003091850014
S11307108091B2009091B2009817E1F38091840027
S1130720909185004096821B930B35E096958795B2
S11307303A95E1F790932E0280932D021092B10026
S1130740109281001092B6001092B20010928500AF
S1130750109284008FEF87BB86BB8091B6008571B1
S1130760E1F70A9A099A089A129A119A109A18B8F3
S11307708FEF87B90C9814980E947D008F3F19F071
S11307800E940302F9CF8091B60080628093B60084
S11307908091B60081FDFCCF82E08093B00080910F
S11307A0B60080FDFCCF83E08093B1008091B60059
S11307B083FDFCCF86EE8093B3008091700082604D
S11307C0809370000E94E4000E947D008F3F19F026
S11307D00E940302F9CFCFBF78944AEF50E060E063
S11307E070E080E00E94780144EF51E060E070E046
S11307F081E00E94780148EE53E060E070E082E01E
S11308000E947801CFB7F8940E947D008F3F09F0D1
S11308104FC080917000837099F08091B6008A7106
S1130820E1F78091B3009091B200891B8C3010F4F1
S113083092E007C08091B200853FD0F793E001C0F9
S113084095E080916E008670E9F480916F008E725D
S1130850C9F4809171008E72A9F40CB407FC12C023
S11308608091C100887171F48091C900887151F43C
S11308708091BC0082FD06C080917A0087FF04C08D
S1130880E1E003C0E0E001C0E5E083B79E1708F4AF
S1130890E92FF0E0E453FF4FE491807F81608E2BD9
S11308A083BF78948895F89483B78E7F83BFACCF49
S10F08B0CFBF0E940302A6CFF894FFCF34
S9030000FC
